{
  "contractName": "ExerciceSolution",
  "abi": [
    {
      "inputs": [
        {
          "internalType": "string",
          "name": "name_",
          "type": "string"
        },
        {
          "internalType": "string",
          "name": "symbol_",
          "type": "string"
        },
        {
          "internalType": "address",
          "name": "address_to",
          "type": "address"
        },
        {
          "internalType": "uint256",
          "name": "id_token",
          "type": "uint256"
        }
      ],
      "stateMutability": "nonpayable",
      "type": "constructor"
    },
    {
      "anonymous": false,
      "inputs": [
        {
          "indexed": true,
          "internalType": "address",
          "name": "owner",
          "type": "address"
        },
        {
          "indexed": true,
          "internalType": "address",
          "name": "approved",
          "type": "address"
        },
        {
          "indexed": true,
          "internalType": "uint256",
          "name": "tokenId",
          "type": "uint256"
        }
      ],
      "name": "Approval",
      "type": "event"
    },
    {
      "anonymous": false,
      "inputs": [
        {
          "indexed": true,
          "internalType": "address",
          "name": "owner",
          "type": "address"
        },
        {
          "indexed": true,
          "internalType": "address",
          "name": "operator",
          "type": "address"
        },
        {
          "indexed": false,
          "internalType": "bool",
          "name": "approved",
          "type": "bool"
        }
      ],
      "name": "ApprovalForAll",
      "type": "event"
    },
    {
      "anonymous": false,
      "inputs": [
        {
          "indexed": true,
          "internalType": "address",
          "name": "from",
          "type": "address"
        },
        {
          "indexed": true,
          "internalType": "address",
          "name": "to",
          "type": "address"
        },
        {
          "indexed": true,
          "internalType": "uint256",
          "name": "tokenId",
          "type": "uint256"
        }
      ],
      "name": "Transfer",
      "type": "event"
    },
    {
      "inputs": [
        {
          "internalType": "address",
          "name": "to",
          "type": "address"
        },
        {
          "internalType": "uint256",
          "name": "tokenId",
          "type": "uint256"
        }
      ],
      "name": "approve",
      "outputs": [],
      "stateMutability": "nonpayable",
      "type": "function"
    },
    {
      "inputs": [
        {
          "internalType": "address",
          "name": "owner",
          "type": "address"
        }
      ],
      "name": "balanceOf",
      "outputs": [
        {
          "internalType": "uint256",
          "name": "",
          "type": "uint256"
        }
      ],
      "stateMutability": "view",
      "type": "function"
    },
    {
      "inputs": [],
      "name": "baseURI",
      "outputs": [
        {
          "internalType": "string",
          "name": "",
          "type": "string"
        }
      ],
      "stateMutability": "view",
      "type": "function"
    },
    {
      "inputs": [],
      "name": "counter",
      "outputs": [
        {
          "internalType": "uint256",
          "name": "",
          "type": "uint256"
        }
      ],
      "stateMutability": "view",
      "type": "function"
    },
    {
      "inputs": [
        {
          "internalType": "uint256",
          "name": "tokenId",
          "type": "uint256"
        }
      ],
      "name": "getApproved",
      "outputs": [
        {
          "internalType": "address",
          "name": "",
          "type": "address"
        }
      ],
      "stateMutability": "view",
      "type": "function"
    },
    {
      "inputs": [
        {
          "internalType": "address",
          "name": "owner",
          "type": "address"
        },
        {
          "internalType": "address",
          "name": "operator",
          "type": "address"
        }
      ],
      "name": "isApprovedForAll",
      "outputs": [
        {
          "internalType": "bool",
          "name": "",
          "type": "bool"
        }
      ],
      "stateMutability": "view",
      "type": "function"
    },
    {
      "inputs": [
        {
          "internalType": "uint256",
          "name": "",
          "type": "uint256"
        }
      ],
      "name": "legs",
      "outputs": [
        {
          "internalType": "uint256",
          "name": "",
          "type": "uint256"
        }
      ],
      "stateMutability": "view",
      "type": "function"
    },
    {
      "inputs": [
        {
          "internalType": "uint256",
          "name": "",
          "type": "uint256"
        }
      ],
      "name": "name",
      "outputs": [
        {
          "internalType": "string",
          "name": "",
          "type": "string"
        }
      ],
      "stateMutability": "view",
      "type": "function"
    },
    {
      "inputs": [],
      "name": "name",
      "outputs": [
        {
          "internalType": "string",
          "name": "",
          "type": "string"
        }
      ],
      "stateMutability": "view",
      "type": "function"
    },
    {
      "inputs": [
        {
          "internalType": "uint256",
          "name": "tokenId",
          "type": "uint256"
        }
      ],
      "name": "ownerOf",
      "outputs": [
        {
          "internalType": "address",
          "name": "",
          "type": "address"
        }
      ],
      "stateMutability": "view",
      "type": "function"
    },
    {
      "inputs": [
        {
          "internalType": "address",
          "name": "from",
          "type": "address"
        },
        {
          "internalType": "address",
          "name": "to",
          "type": "address"
        },
        {
          "internalType": "uint256",
          "name": "tokenId",
          "type": "uint256"
        }
      ],
      "name": "safeTransferFrom",
      "outputs": [],
      "stateMutability": "nonpayable",
      "type": "function"
    },
    {
      "inputs": [
        {
          "internalType": "address",
          "name": "from",
          "type": "address"
        },
        {
          "internalType": "address",
          "name": "to",
          "type": "address"
        },
        {
          "internalType": "uint256",
          "name": "tokenId",
          "type": "uint256"
        },
        {
          "internalType": "bytes",
          "name": "_data",
          "type": "bytes"
        }
      ],
      "name": "safeTransferFrom",
      "outputs": [],
      "stateMutability": "nonpayable",
      "type": "function"
    },
    {
      "inputs": [
        {
          "internalType": "address",
          "name": "operator",
          "type": "address"
        },
        {
          "internalType": "bool",
          "name": "approved",
          "type": "bool"
        }
      ],
      "name": "setApprovalForAll",
      "outputs": [],
      "stateMutability": "nonpayable",
      "type": "function"
    },
    {
      "inputs": [
        {
          "internalType": "uint256",
          "name": "",
          "type": "uint256"
        }
      ],
      "name": "sex",
      "outputs": [
        {
          "internalType": "uint256",
          "name": "",
          "type": "uint256"
        }
      ],
      "stateMutability": "view",
      "type": "function"
    },
    {
      "inputs": [
        {
          "internalType": "bytes4",
          "name": "interfaceId",
          "type": "bytes4"
        }
      ],
      "name": "supportsInterface",
      "outputs": [
        {
          "internalType": "bool",
          "name": "",
          "type": "bool"
        }
      ],
      "stateMutability": "view",
      "type": "function"
    },
    {
      "inputs": [],
      "name": "symbol",
      "outputs": [
        {
          "internalType": "string",
          "name": "",
          "type": "string"
        }
      ],
      "stateMutability": "view",
      "type": "function"
    },
    {
      "inputs": [
        {
          "internalType": "uint256",
          "name": "index",
          "type": "uint256"
        }
      ],
      "name": "tokenByIndex",
      "outputs": [
        {
          "internalType": "uint256",
          "name": "",
          "type": "uint256"
        }
      ],
      "stateMutability": "view",
      "type": "function"
    },
    {
      "inputs": [
        {
          "internalType": "address",
          "name": "owner",
          "type": "address"
        },
        {
          "internalType": "uint256",
          "name": "index",
          "type": "uint256"
        }
      ],
      "name": "tokenOfOwnerByIndex",
      "outputs": [
        {
          "internalType": "uint256",
          "name": "",
          "type": "uint256"
        }
      ],
      "stateMutability": "view",
      "type": "function"
    },
    {
      "inputs": [
        {
          "internalType": "uint256",
          "name": "tokenId",
          "type": "uint256"
        }
      ],
      "name": "tokenURI",
      "outputs": [
        {
          "internalType": "string",
          "name": "",
          "type": "string"
        }
      ],
      "stateMutability": "view",
      "type": "function"
    },
    {
      "inputs": [],
      "name": "totalSupply",
      "outputs": [
        {
          "internalType": "uint256",
          "name": "",
          "type": "uint256"
        }
      ],
      "stateMutability": "view",
      "type": "function"
    },
    {
      "inputs": [
        {
          "internalType": "address",
          "name": "from",
          "type": "address"
        },
        {
          "internalType": "address",
          "name": "to",
          "type": "address"
        },
        {
          "internalType": "uint256",
          "name": "tokenId",
          "type": "uint256"
        }
      ],
      "name": "transferFrom",
      "outputs": [],
      "stateMutability": "nonpayable",
      "type": "function"
    },
    {
      "inputs": [
        {
          "internalType": "uint256",
          "name": "",
          "type": "uint256"
        }
      ],
      "name": "wings",
      "outputs": [
        {
          "internalType": "bool",
          "name": "",
          "type": "bool"
        }
      ],
      "stateMutability": "view",
      "type": "function"
    },
    {
      "inputs": [
        {
          "internalType": "address",
          "name": "account",
          "type": "address"
        }
      ],
      "name": "isBreeder",
      "outputs": [
        {
          "internalType": "bool",
          "name": "",
          "type": "bool"
        }
      ],
      "stateMutability": "nonpayable",
      "type": "function"
    },
    {
      "inputs": [],
      "name": "registrationPrice",
      "outputs": [
        {
          "internalType": "uint256",
          "name": "",
          "type": "uint256"
        }
      ],
      "stateMutability": "nonpayable",
      "type": "function"
    },
    {
      "inputs": [],
      "name": "registerMeAsBreeder",
      "outputs": [],
      "stateMutability": "payable",
      "type": "function"
    },
    {
      "inputs": [],
      "name": "getCounter",
      "outputs": [
        {
          "internalType": "uint256",
          "name": "",
          "type": "uint256"
        }
      ],
      "stateMutability": "view",
      "type": "function"
    },
    {
      "inputs": [
        {
          "internalType": "string",
          "name": "_name",
          "type": "string"
        },
        {
          "internalType": "bool",
          "name": "_wings",
          "type": "bool"
        },
        {
          "internalType": "uint256",
          "name": "_legs",
          "type": "uint256"
        },
        {
          "internalType": "uint256",
          "name": "_sex",
          "type": "uint256"
        }
      ],
      "name": "declareAnimal",
      "outputs": [
        {
          "internalType": "uint256",
          "name": "",
          "type": "uint256"
        }
      ],
      "stateMutability": "nonpayable",
      "type": "function"
    },
    {
      "inputs": [
        {
          "internalType": "uint256",
          "name": "_sex",
          "type": "uint256"
        },
        {
          "internalType": "uint256",
          "name": "_legs",
          "type": "uint256"
        },
        {
          "internalType": "bool",
          "name": "_wings",
          "type": "bool"
        },
        {
          "internalType": "string",
          "name": "_name",
          "type": "string"
        },
        {
          "internalType": "address",
          "name": "address_to",
          "type": "address"
        }
      ],
      "name": "declareAnimalForMe",
      "outputs": [
        {
          "internalType": "uint256",
          "name": "",
          "type": "uint256"
        }
      ],
      "stateMutability": "nonpayable",
      "type": "function"
    },
    {
      "inputs": [
        {
          "internalType": "uint256",
          "name": "animalNumber",
          "type": "uint256"
        }
      ],
      "name": "getAnimalCharacteristics",
      "outputs": [
        {
          "internalType": "string",
          "name": "_name",
          "type": "string"
        },
        {
          "internalType": "bool",
          "name": "_wings",
          "type": "bool"
        },
        {
          "internalType": "uint256",
          "name": "_legs",
          "type": "uint256"
        },
        {
          "internalType": "uint256",
          "name": "_sex",
          "type": "uint256"
        }
      ],
      "stateMutability": "nonpayable",
      "type": "function"
    },
    {
      "inputs": [
        {
          "internalType": "uint256",
          "name": "animalNumber",
          "type": "uint256"
        }
      ],
      "name": "declareDeadAnimal",
      "outputs": [],
      "stateMutability": "nonpayable",
      "type": "function"
    }
  ],
  "bytecode": "0x60806040526001600e553480156200001657600080fd5b5060405162003daa38038062003daa833981810160405260808110156200003c57600080fd5b81019080805160405193929190846401000000008211156200005d57600080fd5b838201915060208201858111156200007457600080fd5b82518660018202830111640100000000821117156200009257600080fd5b8083526020830192505050908051906020019080838360005b83811015620000c8578082015181840152602081019050620000ab565b50505050905090810190601f168015620000f65780820380516001836020036101000a031916815260200191505b50604052602001805160405193929190846401000000008211156200011a57600080fd5b838201915060208201858111156200013157600080fd5b82518660018202830111640100000000821117156200014f57600080fd5b8083526020830192505050908051906020019080838360005b838110156200018557808201518184015260208101905062000168565b50505050905090810190601f168015620001b35780820380516001836020036101000a031916815260200191505b5060405260200180519060200190929190805190602001909291905050508383620001eb6301ffc9a760e01b6200028360201b60201c565b816006908051906020019062000203929190620007e9565b5080600790805190602001906200021c929190620007e9565b50620002356380ac58cd60e01b6200028360201b60201c565b6200024d635b5e139f60e01b6200028360201b60201c565b6200026563780e9d6360e01b6200028360201b60201c565b50506200027982826200038c60201b60201c565b5050505062000898565b63ffffffff60e01b817bffffffffffffffffffffffffffffffffffffffffffffffffffffffff1916141562000320576040517f08c379a000000000000000000000000000000000000000000000000000000000815260040180806020018281038252601c8152602001807f4552433136353a20696e76616c696420696e746572666163652069640000000081525060200191505060405180910390fd5b6001600080837bffffffffffffffffffffffffffffffffffffffffffffffffffffffff19167bffffffffffffffffffffffffffffffffffffffffffffffffffffffff1916815260200190815260200160002060006101000a81548160ff02191690831515021790555050565b600073ffffffffffffffffffffffffffffffffffffffff168273ffffffffffffffffffffffffffffffffffffffff16141562000430576040517f08c379a00000000000000000000000000000000000000000000000000000000081526004018080602001828103825260208152602001807f4552433732313a206d696e7420746f20746865207a65726f206164647265737381525060200191505060405180910390fd5b6200044181620005a060201b60201c565b15620004b5576040517f08c379a000000000000000000000000000000000000000000000000000000000815260040180806020018281038252601c8152602001807f4552433732313a20746f6b656e20616c7265616479206d696e7465640000000081525060200191505060405180910390fd5b620004c960008383620005c460201b60201c565b6200052181600160008573ffffffffffffffffffffffffffffffffffffffff1673ffffffffffffffffffffffffffffffffffffffff168152602001908152602001600020620005c960201b620028091790919060201c565b506200053f81836002620005eb60201b62002823179092919060201c565b50808273ffffffffffffffffffffffffffffffffffffffff16600073ffffffffffffffffffffffffffffffffffffffff167fddf252ad1be2c89b69c2b068fc378daa952ba7f163c4a11628f55a4df523b3ef60405160405180910390a45050565b6000620005bd8260026200062860201b620027bf1790919060201c565b9050919050565b505050565b6000620005e3836000018360001b6200064a60201b60201c565b905092915050565b60006200061f846000018460001b8473ffffffffffffffffffffffffffffffffffffffff1660001b620006c460201b60201c565b90509392505050565b600062000642836000018360001b620007a360201b60201c565b905092915050565b60006200065e8383620007c660201b60201c565b620006b9578260000182908060018154018082558091505060019003906000526020600020016000909190919091505582600001805490508360010160008481526020019081526020016000208190555060019050620006be565b600090505b92915050565b60008084600101600085815260200190815260200160002054905060008114156200076d578460000160405180604001604052808681526020018581525090806001815401808255809150506001900390600052602060002090600202016000909190919091506000820151816000015560208201518160010155505084600001805490508560010160008681526020019081526020016000208190555060019150506200079c565b828560000160018303815481106200078157fe5b90600052602060002090600202016001018190555060009150505b9392505050565b600080836001016000848152602001908152602001600020541415905092915050565b600080836001016000848152602001908152602001600020541415905092915050565b828054600181600116156101000203166002900490600052602060002090601f016020900481019282601f106200082c57805160ff19168380011785556200085d565b828001600101855582156200085d579182015b828111156200085c5782518255916020019190600101906200083f565b5b5090506200086c919062000870565b5090565b6200089591905b808211156200089157600081600090555060010162000877565b5090565b90565b61350280620008a86000396000f3fe6080604052600436106101cc5760003560e01c806361bc221a116100f7578063a22cb46511610095578063c87b56dd11610064578063c87b56dd14610d79578063d75ac1a414610e2d578063e985e9c514610f29578063ec89777214610fb2576101cc565b8063a22cb46514610ad4578063b75e075014610b31578063b88d4fde14610bfe578063c7b9cb0b14610d10576101cc565b806370a08231116100d157806370a08231146108985780638ada066e146108fd57806395d89b411461092857806397a8718e146109b8576101cc565b806361bc221a146107625780636352211e1461078d5780636c0360eb14610808576101cc565b8063197d4fc61161016f57806341d30bae1161013e57806341d30bae1461063b57806342842e0e146106455780634f6ccce7146106c0578063508713f01461070f576101cc565b8063197d4fc6146104d7578063216586581461052657806323b872dd146105515780632f745c59146105cc576101cc565b8063081812fc116101ab578063081812fc14610387578063083e24e414610402578063095ea7b31461045157806318160ddd146104ac576101cc565b8062ad800c146101d157806301ffc9a71461028557806306fdde03146102f7575b600080fd5b3480156101dd57600080fd5b5061020a600480360360208110156101f457600080fd5b8101908080359060200190929190505050610fed565b6040518080602001828103825283818151815260200191508051906020019080838360005b8381101561024a57808201518184015260208101905061022f565b50505050905090810190601f1680156102775780820380516001836020036101000a031916815260200191505b509250505060405180910390f35b34801561029157600080fd5b506102dd600480360360208110156102a857600080fd5b8101908080357bffffffffffffffffffffffffffffffffffffffffffffffffffffffff1916906020019092919050505061109d565b604051808215151515815260200191505060405180910390f35b34801561030357600080fd5b5061030c611104565b6040518080602001828103825283818151815260200191508051906020019080838360005b8381101561034c578082015181840152602081019050610331565b50505050905090810190601f1680156103795780820380516001836020036101000a031916815260200191505b509250505060405180910390f35b34801561039357600080fd5b506103c0600480360360208110156103aa57600080fd5b81019080803590602001909291905050506111a6565b604051808273ffffffffffffffffffffffffffffffffffffffff1673ffffffffffffffffffffffffffffffffffffffff16815260200191505060405180910390f35b34801561040e57600080fd5b5061043b6004803603602081101561042557600080fd5b8101908080359060200190929190505050611241565b6040518082815260200191505060405180910390f35b34801561045d57600080fd5b506104aa6004803603604081101561047457600080fd5b81019080803573ffffffffffffffffffffffffffffffffffffffff16906020019092919080359060200190929190505050611259565b005b3480156104b857600080fd5b506104c161139d565b6040518082815260200191505060405180910390f35b3480156104e357600080fd5b50610510600480360360208110156104fa57600080fd5b81019080803590602001909291905050506113ae565b6040518082815260200191505060405180910390f35b34801561053257600080fd5b5061053b6113c6565b6040518082815260200191505060405180910390f35b34801561055d57600080fd5b506105ca6004803603606081101561057457600080fd5b81019080803573ffffffffffffffffffffffffffffffffffffffff169060200190929190803573ffffffffffffffffffffffffffffffffffffffff169060200190929190803590602001909291905050506113cf565b005b3480156105d857600080fd5b50610625600480360360408110156105ef57600080fd5b81019080803573ffffffffffffffffffffffffffffffffffffffff16906020019092919080359060200190929190505050611445565b6040518082815260200191505060405180910390f35b6106436114a0565b005b34801561065157600080fd5b506106be6004803603606081101561066857600080fd5b81019080803573ffffffffffffffffffffffffffffffffffffffff169060200190929190803573ffffffffffffffffffffffffffffffffffffffff169060200190929190803590602001909291905050506114a2565b005b3480156106cc57600080fd5b506106f9600480360360208110156106e357600080fd5b81019080803590602001909291905050506114c2565b6040518082815260200191505060405180910390f35b34801561071b57600080fd5b506107486004803603602081101561073257600080fd5b81019080803590602001909291905050506114e5565b604051808215151515815260200191505060405180910390f35b34801561076e57600080fd5b50610777611505565b6040518082815260200191505060405180910390f35b34801561079957600080fd5b506107c6600480360360208110156107b057600080fd5b810190808035906020019092919050505061150b565b604051808273ffffffffffffffffffffffffffffffffffffffff1673ffffffffffffffffffffffffffffffffffffffff16815260200191505060405180910390f35b34801561081457600080fd5b5061081d611542565b6040518080602001828103825283818151815260200191508051906020019080838360005b8381101561085d578082015181840152602081019050610842565b50505050905090810190601f16801561088a5780820380516001836020036101000a031916815260200191505b509250505060405180910390f35b3480156108a457600080fd5b506108e7600480360360208110156108bb57600080fd5b81019080803573ffffffffffffffffffffffffffffffffffffffff1690602001909291905050506115e4565b6040518082815260200191505060405180910390f35b34801561090957600080fd5b506109126116b9565b6040518082815260200191505060405180910390f35b34801561093457600080fd5b5061093d6116c3565b6040518080602001828103825283818151815260200191508051906020019080838360005b8381101561097d578082015181840152602081019050610962565b50505050905090810190601f1680156109aa5780820380516001836020036101000a031916815260200191505b509250505060405180910390f35b3480156109c457600080fd5b50610abe600480360360a08110156109db57600080fd5b81019080803590602001909291908035906020019092919080351515906020019092919080359060200190640100000000811115610a1857600080fd5b820183602082011115610a2a57600080fd5b80359060200191846001830284011164010000000083111715610a4c57600080fd5b91908080601f016020809104026020016040519081016040528093929190818152602001838380828437600081840152601f19601f820116905080830192505050505050509192919290803573ffffffffffffffffffffffffffffffffffffffff169060200190929190505050611765565b6040518082815260200191505060405180910390f35b348015610ae057600080fd5b50610b2f60048036036040811015610af757600080fd5b81019080803573ffffffffffffffffffffffffffffffffffffffff16906020019092919080351515906020019092919050505061181d565b005b348015610b3d57600080fd5b50610b6a60048036036020811015610b5457600080fd5b81019080803590602001909291905050506119d5565b604051808060200185151515158152602001848152602001838152602001828103825286818151815260200191508051906020019080838360005b83811015610bc0578082015181840152602081019050610ba5565b50505050905090810190601f168015610bed5780820380516001836020036101000a031916815260200191505b509550505050505060405180910390f35b348015610c0a57600080fd5b50610d0e60048036036080811015610c2157600080fd5b81019080803573ffffffffffffffffffffffffffffffffffffffff169060200190929190803573ffffffffffffffffffffffffffffffffffffffff1690602001909291908035906020019092919080359060200190640100000000811115610c8857600080fd5b820183602082011115610c9a57600080fd5b80359060200191846001830284011164010000000083111715610cbc57600080fd5b91908080601f016020809104026020016040519081016040528093929190818152602001838380828437600081840152601f19601f820116905080830192505050505050509192919290505050611ae0565b005b348015610d1c57600080fd5b50610d5f60048036036020811015610d3357600080fd5b81019080803573ffffffffffffffffffffffffffffffffffffffff169060200190929190505050611b58565b604051808215151515815260200191505060405180910390f35b348015610d8557600080fd5b50610db260048036036020811015610d9c57600080fd5b8101908080359060200190929190505050611b63565b6040518080602001828103825283818151815260200191508051906020019080838360005b83811015610df2578082015181840152602081019050610dd7565b50505050905090810190601f168015610e1f5780820380516001836020036101000a031916815260200191505b509250505060405180910390f35b348015610e3957600080fd5b50610f1360048036036080811015610e5057600080fd5b8101908080359060200190640100000000811115610e6d57600080fd5b820183602082011115610e7f57600080fd5b80359060200191846001830284011164010000000083111715610ea157600080fd5b91908080601f016020809104026020016040519081016040528093929190818152602001838380828437600081840152601f19601f8201169050808301925050505050505091929192908035151590602001909291908035906020019092919080359060200190929190505050611e34565b6040518082815260200191505060405180910390f35b348015610f3557600080fd5b50610f9860048036036040811015610f4c57600080fd5b81019080803573ffffffffffffffffffffffffffffffffffffffff169060200190929190803573ffffffffffffffffffffffffffffffffffffffff169060200190929190505050611eeb565b604051808215151515815260200191505060405180910390f35b348015610fbe57600080fd5b50610feb60048036036020811015610fd557600080fd5b8101908080359060200190929190505050611f7f565b005b600b6020528060005260406000206000915090508054600181600116156101000203166002900480601f0160208091040260200160405190810160405280929190818152602001828054600181600116156101000203166002900480156110955780601f1061106a57610100808354040283529160200191611095565b820191906000526020600020905b81548152906001019060200180831161107857829003601f168201915b505050505081565b6000806000837bffffffffffffffffffffffffffffffffffffffffffffffffffffffff19167bffffffffffffffffffffffffffffffffffffffffffffffffffffffff1916815260200190815260200160002060009054906101000a900460ff169050919050565b606060068054600181600116156101000203166002900480601f01602080910402602001604051908101604052809291908181526020018280546001816001161561010002031660029004801561119c5780601f106111715761010080835404028352916020019161119c565b820191906000526020600020905b81548152906001019060200180831161117f57829003601f168201915b5050505050905090565b60006111b182611f82565b611206576040517f08c379a000000000000000000000000000000000000000000000000000000000815260040180806020018281038252602c8152602001806133f7602c913960400191505060405180910390fd5b6004600083815260200190815260200160002060009054906101000a900473ffffffffffffffffffffffffffffffffffffffff169050919050565b600a6020528060005260406000206000915090505481565b60006112648261150b565b90508073ffffffffffffffffffffffffffffffffffffffff168373ffffffffffffffffffffffffffffffffffffffff1614156112eb576040517f08c379a000000000000000000000000000000000000000000000000000000000815260040180806020018281038252602181526020018061347b6021913960400191505060405180910390fd5b8073ffffffffffffffffffffffffffffffffffffffff1661130a611f9f565b73ffffffffffffffffffffffffffffffffffffffff161480611339575061133881611333611f9f565b611eeb565b5b61138e576040517f08c379a000000000000000000000000000000000000000000000000000000000815260040180806020018281038252603881526020018061334a6038913960400191505060405180910390fd5b6113988383611fa7565b505050565b60006113a96002612060565b905090565b600d6020528060005260406000206000915090505481565b60006003905090565b6113e06113da611f9f565b82612075565b611435576040517f08c379a000000000000000000000000000000000000000000000000000000000815260040180806020018281038252603181526020018061349c6031913960400191505060405180910390fd5b611440838383612169565b505050565b600061149882600160008673ffffffffffffffffffffffffffffffffffffffff1673ffffffffffffffffffffffffffffffffffffffff1681526020019081526020016000206123ac90919063ffffffff16565b905092915050565b565b6114bd83838360405180602001604052806000815250611ae0565b505050565b6000806114d98360026123c690919063ffffffff16565b50905080915050919050565b600c6020528060005260406000206000915054906101000a900460ff1681565b600e5481565b600061153b826040518060600160405280602981526020016133ac6029913960026123f59092919063ffffffff16565b9050919050565b606060098054600181600116156101000203166002900480601f0160208091040260200160405190810160405280929190818152602001828054600181600116156101000203166002900480156115da5780601f106115af576101008083540402835291602001916115da565b820191906000526020600020905b8154815290600101906020018083116115bd57829003601f168201915b5050505050905090565b60008073ffffffffffffffffffffffffffffffffffffffff168273ffffffffffffffffffffffffffffffffffffffff16141561166b576040517f08c379a000000000000000000000000000000000000000000000000000000000815260040180806020018281038252602a815260200180613382602a913960400191505060405180910390fd5b6116b2600160008473ffffffffffffffffffffffffffffffffffffffff1673ffffffffffffffffffffffffffffffffffffffff168152602001908152602001600020612414565b9050919050565b6000600e54905090565b606060078054600181600116156101000203166002900480601f01602080910402602001604051908101604052809291908181526020018280546001816001161561010002031660029004801561175b5780601f106117305761010080835404028352916020019161175b565b820191906000526020600020905b81548152906001019060200180831161173e57829003601f168201915b5050505050905090565b60006001600e6000828254019250508190555085600d6000600e5481526020019081526020016000208190555084600a6000600e5481526020019081526020016000208190555082600b6000600e54815260200190815260200160002090805190602001906117d59291906131da565b5083600c6000600e54815260200190815260200160002060006101000a81548160ff02191690831515021790555061180f82600e54612429565b600e54905095945050505050565b611825611f9f565b73ffffffffffffffffffffffffffffffffffffffff168273ffffffffffffffffffffffffffffffffffffffff1614156118c6576040517f08c379a00000000000000000000000000000000000000000000000000000000081526004018080602001828103825260198152602001807f4552433732313a20617070726f766520746f2063616c6c65720000000000000081525060200191505060405180910390fd5b80600560006118d3611f9f565b73ffffffffffffffffffffffffffffffffffffffff1673ffffffffffffffffffffffffffffffffffffffff16815260200190815260200160002060008473ffffffffffffffffffffffffffffffffffffffff1673ffffffffffffffffffffffffffffffffffffffff16815260200190815260200160002060006101000a81548160ff0219169083151502179055508173ffffffffffffffffffffffffffffffffffffffff16611980611f9f565b73ffffffffffffffffffffffffffffffffffffffff167f17307eab39ab6107e8899845ad3d59bd9653f200f220920489ca2b5937696c3183604051808215151515815260200191505060405180910390a35050565b60606000806000600b60008681526020019081526020016000208054600181600116156101000203166002900480601f016020809104026020016040519081016040528092919081815260200182805460018160011615610100020316600290048015611a835780601f10611a5857610100808354040283529160200191611a83565b820191906000526020600020905b815481529060010190602001808311611a6657829003601f168201915b50505050509350600c600086815260200190815260200160002060009054906101000a900460ff169250600a6000868152602001908152602001600020549150600d60008681526020019081526020016000205490509193509193565b611af1611aeb611f9f565b83612075565b611b46576040517f08c379a000000000000000000000000000000000000000000000000000000000815260040180806020018281038252603181526020018061349c6031913960400191505060405180910390fd5b611b528484848461261d565b50505050565b600060019050919050565b6060611b6e82611f82565b611bc3576040517f08c379a000000000000000000000000000000000000000000000000000000000815260040180806020018281038252602f81526020018061344c602f913960400191505060405180910390fd5b6060600860008481526020019081526020016000208054600181600116156101000203166002900480601f016020809104026020016040519081016040528092919081815260200182805460018160011615610100020316600290048015611c6c5780601f10611c4157610100808354040283529160200191611c6c565b820191906000526020600020905b815481529060010190602001808311611c4f57829003601f168201915b505050505090506060611c7d611542565b9050600081511415611c93578192505050611e2f565b600082511115611d645780826040516020018083805190602001908083835b60208310611cd55780518252602082019150602081019050602083039250611cb2565b6001836020036101000a03801982511681845116808217855250505050505090500182805190602001908083835b60208310611d265780518252602082019150602081019050602083039250611d03565b6001836020036101000a0380198251168184511680821785525050505050509050019250505060405160208183030381529060405292505050611e2f565b80611d6e8561268f565b6040516020018083805190602001908083835b60208310611da45780518252602082019150602081019050602083039250611d81565b6001836020036101000a03801982511681845116808217855250505050505090500182805190602001908083835b60208310611df55780518252602082019150602081019050602083039250611dd2565b6001836020036101000a03801982511681845116808217855250505050505090500192505050604051602081830303815290604052925050505b919050565b60006001600e6000828254019250508190555081600d6000600e5481526020019081526020016000208190555082600a6000600e5481526020019081526020016000208190555084600b6000600e5481526020019081526020016000209080519060200190611ea49291906131da565b5083600c6000600e54815260200190815260200160002060006101000a81548160ff021916908315150217905550611ede33600e54612429565b600e549050949350505050565b6000600560008473ffffffffffffffffffffffffffffffffffffffff1673ffffffffffffffffffffffffffffffffffffffff16815260200190815260200160002060008373ffffffffffffffffffffffffffffffffffffffff1673ffffffffffffffffffffffffffffffffffffffff16815260200190815260200160002060009054906101000a900460ff16905092915050565b50565b6000611f988260026127bf90919063ffffffff16565b9050919050565b600033905090565b816004600083815260200190815260200160002060006101000a81548173ffffffffffffffffffffffffffffffffffffffff021916908373ffffffffffffffffffffffffffffffffffffffff160217905550808273ffffffffffffffffffffffffffffffffffffffff1661201a8361150b565b73ffffffffffffffffffffffffffffffffffffffff167f8c5be1e5ebec7d5bd14f71427d1e84f3dd0314c0f7b2291e5b200ac8c7c3b92560405160405180910390a45050565b600061206e826000016127d9565b9050919050565b600061208082611f82565b6120d5576040517f08c379a000000000000000000000000000000000000000000000000000000000815260040180806020018281038252602c81526020018061331e602c913960400191505060405180910390fd5b60006120e08361150b565b90508073ffffffffffffffffffffffffffffffffffffffff168473ffffffffffffffffffffffffffffffffffffffff16148061214f57508373ffffffffffffffffffffffffffffffffffffffff16612137846111a6565b73ffffffffffffffffffffffffffffffffffffffff16145b80612160575061215f8185611eeb565b5b91505092915050565b8273ffffffffffffffffffffffffffffffffffffffff166121898261150b565b73ffffffffffffffffffffffffffffffffffffffff16146121f5576040517f08c379a00000000000000000000000000000000000000000000000000000000081526004018080602001828103825260298152602001806134236029913960400191505060405180910390fd5b600073ffffffffffffffffffffffffffffffffffffffff168273ffffffffffffffffffffffffffffffffffffffff16141561227b576040517f08c379a00000000000000000000000000000000000000000000000000000000081526004018080602001828103825260248152602001806132d46024913960400191505060405180910390fd5b6122868383836127ea565b612291600082611fa7565b6122e281600160008673ffffffffffffffffffffffffffffffffffffffff1673ffffffffffffffffffffffffffffffffffffffff1681526020019081526020016000206127ef90919063ffffffff16565b5061233481600160008573ffffffffffffffffffffffffffffffffffffffff1673ffffffffffffffffffffffffffffffffffffffff16815260200190815260200160002061280990919063ffffffff16565b5061234b818360026128239092919063ffffffff16565b50808273ffffffffffffffffffffffffffffffffffffffff168473ffffffffffffffffffffffffffffffffffffffff167fddf252ad1be2c89b69c2b068fc378daa952ba7f163c4a11628f55a4df523b3ef60405160405180910390a4505050565b60006123bb8360000183612858565b60001c905092915050565b6000806000806123d986600001866128db565b915091508160001c8160001c8090509350935050509250929050565b6000612408846000018460001b84612974565b60001c90509392505050565b600061242282600001612a6a565b9050919050565b600073ffffffffffffffffffffffffffffffffffffffff168273ffffffffffffffffffffffffffffffffffffffff1614156124cc576040517f08c379a00000000000000000000000000000000000000000000000000000000081526004018080602001828103825260208152602001807f4552433732313a206d696e7420746f20746865207a65726f206164647265737381525060200191505060405180910390fd5b6124d581611f82565b15612548576040517f08c379a000000000000000000000000000000000000000000000000000000000815260040180806020018281038252601c8152602001807f4552433732313a20746f6b656e20616c7265616479206d696e7465640000000081525060200191505060405180910390fd5b612554600083836127ea565b6125a581600160008573ffffffffffffffffffffffffffffffffffffffff1673ffffffffffffffffffffffffffffffffffffffff16815260200190815260200160002061280990919063ffffffff16565b506125bc818360026128239092919063ffffffff16565b50808273ffffffffffffffffffffffffffffffffffffffff16600073ffffffffffffffffffffffffffffffffffffffff167fddf252ad1be2c89b69c2b068fc378daa952ba7f163c4a11628f55a4df523b3ef60405160405180910390a45050565b612628848484612169565b61263484848484612a7b565b612689576040517f08c379a00000000000000000000000000000000000000000000000000000000081526004018080602001828103825260328152602001806132a26032913960400191505060405180910390fd5b50505050565b606060008214156126d7576040518060400160405280600181526020017f300000000000000000000000000000000000000000000000000000000000000081525090506127ba565b600082905060005b60008214612701578080600101915050600a82816126f957fe5b0491506126df565b6060816040519080825280601f01601f1916602001820160405280156127365781602001600182028038833980820191505090505b50905060006001830390508593505b600084146127b257600a848161275757fe5b0660300160f81b8282806001900393508151811061277157fe5b60200101907effffffffffffffffffffffffffffffffffffffffffffffffffffffffffffff1916908160001a905350600a84816127aa57fe5b049350612745565b819450505050505b919050565b60006127d1836000018360001b612cc0565b905092915050565b600081600001805490509050919050565b505050565b6000612801836000018360001b612ce3565b905092915050565b600061281b836000018360001b612dcb565b905092915050565b600061284f846000018460001b8473ffffffffffffffffffffffffffffffffffffffff1660001b612e3b565b90509392505050565b6000818360000180549050116128b9576040517f08c379a00000000000000000000000000000000000000000000000000000000081526004018080602001828103825260228152602001806132806022913960400191505060405180910390fd5b8260000182815481106128c857fe5b9060005260206000200154905092915050565b6000808284600001805490501161293d576040517f08c379a00000000000000000000000000000000000000000000000000000000081526004018080602001828103825260228152602001806133d56022913960400191505060405180910390fd5b600084600001848154811061294e57fe5b906000526020600020906002020190508060000154816001015492509250509250929050565b60008084600101600085815260200190815260200160002054905060008114158390612a3b576040517f08c379a00000000000000000000000000000000000000000000000000000000081526004018080602001828103825283818151815260200191508051906020019080838360005b83811015612a005780820151818401526020810190506129e5565b50505050905090810190601f168015612a2d5780820380516001836020036101000a031916815260200191505b509250505060405180910390fd5b50846000016001820381548110612a4e57fe5b9060005260206000209060020201600101549150509392505050565b600081600001805490509050919050565b6000612a9c8473ffffffffffffffffffffffffffffffffffffffff16612f17565b612aa95760019050612cb8565b6060612c3f63150b7a0260e01b612abe611f9f565b888787604051602401808573ffffffffffffffffffffffffffffffffffffffff1673ffffffffffffffffffffffffffffffffffffffff1681526020018473ffffffffffffffffffffffffffffffffffffffff1673ffffffffffffffffffffffffffffffffffffffff16815260200183815260200180602001828103825283818151815260200191508051906020019080838360005b83811015612b6e578082015181840152602081019050612b53565b50505050905090810190601f168015612b9b5780820380516001836020036101000a031916815260200191505b5095505050505050604051602081830303815290604052907bffffffffffffffffffffffffffffffffffffffffffffffffffffffff19166020820180517bffffffffffffffffffffffffffffffffffffffffffffffffffffffff83818316178352505050506040518060600160405280603281526020016132a2603291398773ffffffffffffffffffffffffffffffffffffffff16612f2a9092919063ffffffff16565b90506000818060200190516020811015612c5857600080fd5b8101908080519060200190929190505050905063150b7a0260e01b7bffffffffffffffffffffffffffffffffffffffffffffffffffffffff1916817bffffffffffffffffffffffffffffffffffffffffffffffffffffffff191614925050505b949350505050565b600080836001016000848152602001908152602001600020541415905092915050565b60008083600101600084815260200190815260200160002054905060008114612dbf5760006001820390506000600186600001805490500390506000866000018281548110612d2e57fe5b9060005260206000200154905080876000018481548110612d4b57fe5b9060005260206000200181905550600183018760010160008381526020019081526020016000208190555086600001805480612d8357fe5b60019003818190600052602060002001600090559055866001016000878152602001908152602001600020600090556001945050505050612dc5565b60009150505b92915050565b6000612dd78383612f42565b612e30578260000182908060018154018082558091505060019003906000526020600020016000909190919091505582600001805490508360010160008481526020019081526020016000208190555060019050612e35565b600090505b92915050565b6000808460010160008581526020019081526020016000205490506000811415612ee257846000016040518060400160405280868152602001858152509080600181540180825580915050600190039060005260206000209060020201600090919091909150600082015181600001556020820151816001015550508460000180549050856001016000868152602001908152602001600020819055506001915050612f10565b82856000016001830381548110612ef557fe5b90600052602060002090600202016001018190555060009150505b9392505050565b600080823b905060008111915050919050565b6060612f398484600085612f65565b90509392505050565b600080836001016000848152602001908152602001600020541415905092915050565b606082471015612fc0576040517f08c379a00000000000000000000000000000000000000000000000000000000081526004018080602001828103825260268152602001806132f86026913960400191505060405180910390fd5b612fc985612f17565b61303b576040517f08c379a000000000000000000000000000000000000000000000000000000000815260040180806020018281038252601d8152602001807f416464726573733a2063616c6c20746f206e6f6e2d636f6e747261637400000081525060200191505060405180910390fd5b600060608673ffffffffffffffffffffffffffffffffffffffff1685876040518082805190602001908083835b6020831061308b5780518252602082019150602081019050602083039250613068565b6001836020036101000a03801982511681845116808217855250505050505090500191505060006040518083038185875af1925050503d80600081146130ed576040519150601f19603f3d011682016040523d82523d6000602084013e6130f2565b606091505b509150915061310282828661310e565b92505050949350505050565b6060831561311e578290506131d3565b6000835111156131315782518084602001fd5b816040517f08c379a00000000000000000000000000000000000000000000000000000000081526004018080602001828103825283818151815260200191508051906020019080838360005b8381101561319857808201518184015260208101905061317d565b50505050905090810190601f1680156131c55780820380516001836020036101000a031916815260200191505b509250505060405180910390fd5b9392505050565b828054600181600116156101000203166002900490600052602060002090601f016020900481019282601f1061321b57805160ff1916838001178555613249565b82800160010185558215613249579182015b8281111561324857825182559160200191906001019061322d565b5b509050613256919061325a565b5090565b61327c91905b80821115613278576000816000905550600101613260565b5090565b9056fe456e756d657261626c655365743a20696e646578206f7574206f6620626f756e64734552433732313a207472616e7366657220746f206e6f6e20455243373231526563656976657220696d706c656d656e7465724552433732313a207472616e7366657220746f20746865207a65726f2061646472657373416464726573733a20696e73756666696369656e742062616c616e636520666f722063616c6c4552433732313a206f70657261746f7220717565727920666f72206e6f6e6578697374656e7420746f6b656e4552433732313a20617070726f76652063616c6c6572206973206e6f74206f776e6572206e6f7220617070726f76656420666f7220616c6c4552433732313a2062616c616e636520717565727920666f7220746865207a65726f20616464726573734552433732313a206f776e657220717565727920666f72206e6f6e6578697374656e7420746f6b656e456e756d657261626c654d61703a20696e646578206f7574206f6620626f756e64734552433732313a20617070726f76656420717565727920666f72206e6f6e6578697374656e7420746f6b656e4552433732313a207472616e73666572206f6620746f6b656e2074686174206973206e6f74206f776e4552433732314d657461646174613a2055524920717565727920666f72206e6f6e6578697374656e7420746f6b656e4552433732313a20617070726f76616c20746f2063757272656e74206f776e65724552433732313a207472616e736665722063616c6c6572206973206e6f74206f776e6572206e6f7220617070726f766564a2646970667358221220b0dcec908c4c328e4f36ae6c3fac1686476077bb81bef42ead3e5cdd228df3bf64736f6c63430006020033",
  "source": "pragma solidity ^0.6.0;\r\nimport \"@openzeppelin/contracts/token/ERC721/ERC721.sol\";\r\n\r\n\r\ncontract ExerciceSolution is ERC721 {\r\n    \r\n\r\n    \r\n    \r\n    mapping(uint => uint) public legs;\r\n    mapping(uint => string) public name;\r\n    mapping(uint => bool) public wings;\r\n    mapping(uint => uint) public sex;\r\n\r\n    uint public counter = 1;\r\n\r\n    constructor(string memory name_, string memory symbol_, address address_to, uint256 id_token) public ERC721(name_, symbol_){\r\n\r\n        _mint (address_to, id_token);\r\n\r\n    }\r\n    \r\n\r\n    function isBreeder(address account) external returns (bool){\r\n\r\n        return true;\r\n    }\r\n\r\n\tfunction registrationPrice() external returns (uint256){\r\n\r\n        return 3;\r\n    }\r\n\r\n\tfunction registerMeAsBreeder() public payable{\r\n        return;\r\n    }\r\n\r\n    function getCounter() public view returns (uint256){\r\n\r\n        return counter;\r\n\r\n    }\r\n\r\n\tfunction declareAnimal(string memory _name, bool _wings,uint _legs ,uint _sex) public returns (uint256){\r\n\r\n        \r\n        counter += 1;\r\n\r\n        sex[counter] = _sex;\r\n        legs[counter] = _legs;\r\n        name[counter] = _name;\r\n        wings[counter] = _wings;\r\n\r\n        _mint (msg.sender, counter);\r\n\r\n\r\n        return counter;\r\n    }\r\n    function declareAnimalForMe(uint _sex, uint _legs, bool _wings, string memory _name, address address_to ) public returns (uint256) {\r\n\r\n        counter += 1;\r\n\r\n        sex[counter] = _sex;\r\n        legs[counter] = _legs;\r\n        name[counter] = _name;\r\n        wings[counter] = _wings;\r\n\r\n        _mint (address_to, counter);\r\n\r\n        return counter;\r\n\r\n\r\n    }\r\n\r\n\tfunction getAnimalCharacteristics(uint animalNumber) public returns (string memory _name, bool _wings, uint _legs, uint _sex){\r\n        _name = name[animalNumber];\r\n        _wings = wings[animalNumber];\r\n        _legs = legs[animalNumber];\r\n        _sex = sex[animalNumber];\r\n\r\n    }\r\n\r\n\tfunction declareDeadAnimal(uint animalNumber) external{\r\n        return;\r\n    }\r\n\r\n\r\n\r\n\r\n}",
  "sourcePath": "C:\\Users\\arthu\\OneDrive\\Bureau\\ESILV A4 S1\\BlockChain Promming\\final-erc721-101-main\\contracts\\ExerciceSolution.sol",
  "compiler": {
    "name": "solc",
    "version": "0.6.2+commit.bacdbe57.Emscripten.clang"
  },
  "schemaVersion": "3.4.3",
  "updatedAt": "2021-12-10T19:57:55.473Z",
  "devdoc": {
    "methods": {
      "approve(address,uint256)": {
        "details": "See {IERC721-approve}."
      },
      "balanceOf(address)": {
        "details": "See {IERC721-balanceOf}."
      },
      "baseURI()": {
        "details": "Returns the base URI set via {_setBaseURI}. This will be automatically added as a prefix in {tokenURI} to each token's URI, or to the token ID if no specific URI is set for that token ID."
      },
      "getApproved(uint256)": {
        "details": "See {IERC721-getApproved}."
      },
      "isApprovedForAll(address,address)": {
        "details": "See {IERC721-isApprovedForAll}."
      },
      "name()": {
        "details": "See {IERC721Metadata-name}."
      },
      "ownerOf(uint256)": {
        "details": "See {IERC721-ownerOf}."
      },
      "safeTransferFrom(address,address,uint256)": {
        "details": "See {IERC721-safeTransferFrom}."
      },
      "safeTransferFrom(address,address,uint256,bytes)": {
        "details": "See {IERC721-safeTransferFrom}."
      },
      "setApprovalForAll(address,bool)": {
        "details": "See {IERC721-setApprovalForAll}."
      },
      "supportsInterface(bytes4)": {
        "details": "See {IERC165-supportsInterface}.     * Time complexity O(1), guaranteed to always use less than 30 000 gas."
      },
      "symbol()": {
        "details": "See {IERC721Metadata-symbol}."
      },
      "tokenByIndex(uint256)": {
        "details": "See {IERC721Enumerable-tokenByIndex}."
      },
      "tokenOfOwnerByIndex(address,uint256)": {
        "details": "See {IERC721Enumerable-tokenOfOwnerByIndex}."
      },
      "tokenURI(uint256)": {
        "details": "See {IERC721Metadata-tokenURI}."
      },
      "totalSupply()": {
        "details": "See {IERC721Enumerable-totalSupply}."
      },
      "transferFrom(address,address,uint256)": {
        "details": "See {IERC721-transferFrom}."
      }
    }
  },
  "userdoc": {
    "methods": {}
  }
}